{
  "_format": "hh-sol-artifact-1",
  "contractName": "Roulette",
  "sourceName": "contracts/Roulette.sol",
  "abi": [
    {
      "inputs": [],
      "stateMutability": "payable",
      "type": "constructor"
    },
    {
      "anonymous": false,
      "inputs": [
        {
          "indexed": false,
          "internalType": "uint256",
          "name": "requestId",
          "type": "uint256"
        },
        {
          "indexed": false,
          "internalType": "bool",
          "name": "userWin",
          "type": "bool"
        }
      ],
      "name": "RouletteResult",
      "type": "event"
    },
    {
      "anonymous": false,
      "inputs": [
        {
          "indexed": false,
          "internalType": "uint256",
          "name": "requestId",
          "type": "uint256"
        }
      ],
      "name": "RouletteRolled",
      "type": "event"
    },
    {
      "inputs": [
        {
          "internalType": "uint256",
          "name": "_requestId",
          "type": "uint256"
        }
      ],
      "name": "getStatus",
      "outputs": [
        {
          "components": [
            {
              "internalType": "uint256",
              "name": "fees",
              "type": "uint256"
            },
            {
              "internalType": "uint256",
              "name": "randomWord",
              "type": "uint256"
            },
            {
              "internalType": "address",
              "name": "player",
              "type": "address"
            },
            {
              "internalType": "bool",
              "name": "userWin",
              "type": "bool"
            },
            {
              "internalType": "bool",
              "name": "fulfilled",
              "type": "bool"
            },
            {
              "internalType": "enum Roulette.RouletteColor",
              "name": "color",
              "type": "uint8"
            }
          ],
          "internalType": "struct Roulette.RouletteRollStatus",
          "name": "",
          "type": "tuple"
        }
      ],
      "stateMutability": "view",
      "type": "function"
    },
    {
      "inputs": [
        {
          "internalType": "uint256",
          "name": "_requestId",
          "type": "uint256"
        },
        {
          "internalType": "uint256[]",
          "name": "_randomWords",
          "type": "uint256[]"
        }
      ],
      "name": "rawFulfillRandomWords",
      "outputs": [],
      "stateMutability": "nonpayable",
      "type": "function"
    },
    {
      "inputs": [
        {
          "internalType": "enum Roulette.RouletteColor",
          "name": "_color",
          "type": "uint8"
        }
      ],
      "name": "roll",
      "outputs": [
        {
          "internalType": "uint256",
          "name": "",
          "type": "uint256"
        }
      ],
      "stateMutability": "payable",
      "type": "function"
    },
    {
      "inputs": [
        {
          "internalType": "uint256",
          "name": "",
          "type": "uint256"
        }
      ],
      "name": "statuses",
      "outputs": [
        {
          "internalType": "uint256",
          "name": "fees",
          "type": "uint256"
        },
        {
          "internalType": "uint256",
          "name": "randomWord",
          "type": "uint256"
        },
        {
          "internalType": "address",
          "name": "player",
          "type": "address"
        },
        {
          "internalType": "bool",
          "name": "userWin",
          "type": "bool"
        },
        {
          "internalType": "bool",
          "name": "fulfilled",
          "type": "bool"
        },
        {
          "internalType": "enum Roulette.RouletteColor",
          "name": "color",
          "type": "uint8"
        }
      ],
      "stateMutability": "view",
      "type": "function"
    }
  ],
  "bytecode": "0x60c060405266038d7ea4c6800060005573326c977e6efc84e512bb9c30f76e30c160ed06fb73708701a1dff4f478de54383e49a627ed4852c8168173ffffffffffffffffffffffffffffffffffffffff1660808173ffffffffffffffffffffffffffffffffffffffff16815250508073ffffffffffffffffffffffffffffffffffffffff1660a08173ffffffffffffffffffffffffffffffffffffffff1681525050505060805160a0516114326100e46000396000818161011e01528181610327015281816108630152818161088401526109c20152600061082701526114326000f3fe60806040526004361061003f5760003560e01c80631fe543e3146100445780635c622a0e1461006d5780636bf0f4a1146100aa578063e67b932c146100da575b600080fd5b34801561005057600080fd5b5061006b60048036038101906100669190610c6c565b61011c565b005b34801561007957600080fd5b50610094600480360381019061008f9190610cc8565b6101b8565b6040516100a19190610e52565b60405180910390f35b6100c460048036038101906100bf9190610e92565b6102c0565b6040516100d19190610ece565b60405180910390f35b3480156100e657600080fd5b5061010160048036038101906100fc9190610cc8565b610542565b60405161011396959493929190610f16565b60405180910390f35b7f000000000000000000000000000000000000000000000000000000000000000073ffffffffffffffffffffffffffffffffffffffff163373ffffffffffffffffffffffffffffffffffffffff16146101aa576040517f08c379a00000000000000000000000000000000000000000000000000000000081526004016101a190610fd4565b60405180910390fd5b6101b482826105c5565b5050565b6101c0610a67565b600160008381526020019081526020016000206040518060c001604052908160008201548152602001600182015481526020016002820160009054906101000a900473ffffffffffffffffffffffffffffffffffffffff1673ffffffffffffffffffffffffffffffffffffffff1673ffffffffffffffffffffffffffffffffffffffff1681526020016002820160149054906101000a900460ff161515151581526020016002820160159054906101000a900460ff161515151581526020016002820160169054906101000a900460ff1660018111156102a3576102a2610d60565b5b60018111156102b5576102b4610d60565b5b815250509050919050565b60008054341015610306576040517f08c379a00000000000000000000000000000000000000000000000000000000081526004016102fd90611040565b60405180910390fd5b6000610318620f424060036001610823565b90506040518060c001604052807f000000000000000000000000000000000000000000000000000000000000000073ffffffffffffffffffffffffffffffffffffffff16634306d354620f42406040518263ffffffff1660e01b8152600401610381919061107f565b60206040518083038186803b15801561039957600080fd5b505afa1580156103ad573d6000803e3d6000fd5b505050506040513d601f19601f820116820180604052508101906103d191906110af565b8152602001600081526020013373ffffffffffffffffffffffffffffffffffffffff16815260200160001515815260200160001515815260200184600181111561041e5761041d610d60565b5b81525060016000838152602001908152602001600020600082015181600001556020820151816001015560408201518160020160006101000a81548173ffffffffffffffffffffffffffffffffffffffff021916908373ffffffffffffffffffffffffffffffffffffffff16021790555060608201518160020160146101000a81548160ff02191690831515021790555060808201518160020160156101000a81548160ff02191690831515021790555060a08201518160020160166101000a81548160ff021916908360018111156104fa576104f9610d60565b5b02179055509050507f16ae3e028a22277c7ba1e645f796486688ac12305562893a96eccee8a162512e816040516105319190610ece565b60405180910390a180915050919050565b60016020528060005260406000206000915090508060000154908060010154908060020160009054906101000a900473ffffffffffffffffffffffffffffffffffffffff16908060020160149054906101000a900460ff16908060020160159054906101000a900460ff16908060020160169054906101000a900460ff16905086565b60006001600084815260200190815260200160002060000154101561061f576040517f08c379a000000000000000000000000000000000000000000000000000000000815260040161061690611128565b60405180910390fd5b600180600084815260200190815260200160002060020160156101000a81548160ff0219169083151502179055508060008151811061066157610660611148565b5b6020026020010151600160008481526020019081526020016000206001018190555060008060028360008151811061069c5761069b611148565b5b60200260200101516106ae91906111a6565b14156106b957600190505b8060018111156106cc576106cb610d60565b5b6001600085815260200190815260200160002060020160169054906101000a900460ff16600181111561070257610701610d60565b5b14156107c257600180600085815260200190815260200160002060020160146101000a81548160ff0219169083151502179055506001600084815260200190815260200160002060020160009054906101000a900473ffffffffffffffffffffffffffffffffffffffff1673ffffffffffffffffffffffffffffffffffffffff166108fc60026000546107959190611206565b9081150290604051600060405180830381858888f193505050501580156107c0573d6000803e3d6000fd5b505b7ff4e3826cf1f16a205e9ff325b4bb0c0c910fd817bada1450d942acfb64adc4e0836001600086815260200190815260200160002060020160149054906101000a900460ff16604051610816929190611260565b60405180910390a1505050565b60007f000000000000000000000000000000000000000000000000000000000000000073ffffffffffffffffffffffffffffffffffffffff16634000aea07f00000000000000000000000000000000000000000000000000000000000000007f000000000000000000000000000000000000000000000000000000000000000073ffffffffffffffffffffffffffffffffffffffff16634306d354886040518263ffffffff1660e01b81526004016108db919061107f565b60206040518083038186803b1580156108f357600080fd5b505afa158015610907573d6000803e3d6000fd5b505050506040513d601f19601f8201168201806040525081019061092b91906110af565b878787604051602001610940939291906112a6565b6040516020818303038152906040526040518463ffffffff1660e01b815260040161096d93929190611365565b602060405180830381600087803b15801561098757600080fd5b505af115801561099b573d6000803e3d6000fd5b505050506040513d601f19601f820116820180604052508101906109bf91906113cf565b507f000000000000000000000000000000000000000000000000000000000000000073ffffffffffffffffffffffffffffffffffffffff1663fc2a88c36040518163ffffffff1660e01b815260040160206040518083038186803b158015610a2657600080fd5b505afa158015610a3a573d6000803e3d6000fd5b505050506040513d601f19601f82011682018060405250810190610a5e91906110af565b90509392505050565b6040518060c001604052806000815260200160008152602001600073ffffffffffffffffffffffffffffffffffffffff16815260200160001515815260200160001515815260200160006001811115610ac357610ac2610d60565b5b81525090565b6000604051905090565b600080fd5b600080fd5b6000819050919050565b610af081610add565b8114610afb57600080fd5b50565b600081359050610b0d81610ae7565b92915050565b600080fd5b6000601f19601f8301169050919050565b7f4e487b7100000000000000000000000000000000000000000000000000000000600052604160045260246000fd5b610b6182610b18565b810181811067ffffffffffffffff82111715610b8057610b7f610b29565b5b80604052505050565b6000610b93610ac9565b9050610b9f8282610b58565b919050565b600067ffffffffffffffff821115610bbf57610bbe610b29565b5b602082029050602081019050919050565b600080fd5b6000610be8610be384610ba4565b610b89565b90508083825260208201905060208402830185811115610c0b57610c0a610bd0565b5b835b81811015610c345780610c208882610afe565b845260208401935050602081019050610c0d565b5050509392505050565b600082601f830112610c5357610c52610b13565b5b8135610c63848260208601610bd5565b91505092915050565b60008060408385031215610c8357610c82610ad3565b5b6000610c9185828601610afe565b925050602083013567ffffffffffffffff811115610cb257610cb1610ad8565b5b610cbe85828601610c3e565b9150509250929050565b600060208284031215610cde57610cdd610ad3565b5b6000610cec84828501610afe565b91505092915050565b610cfe81610add565b82525050565b600073ffffffffffffffffffffffffffffffffffffffff82169050919050565b6000610d2f82610d04565b9050919050565b610d3f81610d24565b82525050565b60008115159050919050565b610d5a81610d45565b82525050565b7f4e487b7100000000000000000000000000000000000000000000000000000000600052602160045260246000fd5b60028110610da057610d9f610d60565b5b50565b6000819050610db182610d8f565b919050565b6000610dc182610da3565b9050919050565b610dd181610db6565b82525050565b60c082016000820151610ded6000850182610cf5565b506020820151610e006020850182610cf5565b506040820151610e136040850182610d36565b506060820151610e266060850182610d51565b506080820151610e396080850182610d51565b5060a0820151610e4c60a0850182610dc8565b50505050565b600060c082019050610e676000830184610dd7565b92915050565b60028110610e7a57600080fd5b50565b600081359050610e8c81610e6d565b92915050565b600060208284031215610ea857610ea7610ad3565b5b6000610eb684828501610e7d565b91505092915050565b610ec881610add565b82525050565b6000602082019050610ee36000830184610ebf565b92915050565b610ef281610d24565b82525050565b610f0181610d45565b82525050565b610f1081610db6565b82525050565b600060c082019050610f2b6000830189610ebf565b610f386020830188610ebf565b610f456040830187610ee9565b610f526060830186610ef8565b610f5f6080830185610ef8565b610f6c60a0830184610f07565b979650505050505050565b600082825260208201905092915050565b7f6f6e6c792056524620563220777261707065722063616e2066756c66696c6c00600082015250565b6000610fbe601f83610f77565b9150610fc982610f88565b602082019050919050565b60006020820190508181036000830152610fed81610fb1565b9050919050565b7f496e636f727265637420656e747279206665657320616d6f756e740000000000600082015250565b600061102a601b83610f77565b915061103582610ff4565b602082019050919050565b600060208201905081810360008301526110598161101d565b9050919050565b600063ffffffff82169050919050565b61107981611060565b82525050565b60006020820190506110946000830184611070565b92915050565b6000815190506110a981610ae7565b92915050565b6000602082840312156110c5576110c4610ad3565b5b60006110d38482850161109a565b91505092915050565b7f52657175657374206e6f7420666f756e64000000000000000000000000000000600082015250565b6000611112601183610f77565b915061111d826110dc565b602082019050919050565b6000602082019050818103600083015261114181611105565b9050919050565b7f4e487b7100000000000000000000000000000000000000000000000000000000600052603260045260246000fd5b7f4e487b7100000000000000000000000000000000000000000000000000000000600052601260045260246000fd5b60006111b182610add565b91506111bc83610add565b9250826111cc576111cb611177565b5b828206905092915050565b7f4e487b7100000000000000000000000000000000000000000000000000000000600052601160045260246000fd5b600061121182610add565b915061121c83610add565b9250817fffffffffffffffffffffffffffffffffffffffffffffffffffffffffffffffff0483118215151615611255576112546111d7565b5b828202905092915050565b60006040820190506112756000830185610ebf565b6112826020830184610ef8565b9392505050565b600061ffff82169050919050565b6112a081611289565b82525050565b60006060820190506112bb6000830186611070565b6112c86020830185611297565b6112d56040830184611070565b949350505050565b600081519050919050565b600082825260208201905092915050565b60005b838110156113175780820151818401526020810190506112fc565b83811115611326576000848401525b50505050565b6000611337826112dd565b61134181856112e8565b93506113518185602086016112f9565b61135a81610b18565b840191505092915050565b600060608201905061137a6000830186610ee9565b6113876020830185610ebf565b8181036040830152611399818461132c565b9050949350505050565b6113ac81610d45565b81146113b757600080fd5b50565b6000815190506113c9816113a3565b92915050565b6000602082840312156113e5576113e4610ad3565b5b60006113f3848285016113ba565b9150509291505056fea2646970667358221220127b06dade0587f8e4f9f7c5265742fb48966d96ec85ae172d47b92ede66402464736f6c63430008090033",
  "linkReferences": {},
  "deployedLinkReferences": {}
}