{
  "_format": "hh-sol-artifact-1",
  "contractName": "Roulette",
  "sourceName": "contracts/Roulette.sol",
  "abi": [
    {
      "inputs": [],
      "stateMutability": "payable",
      "type": "constructor"
    },
    {
      "anonymous": false,
      "inputs": [
        {
          "indexed": false,
          "internalType": "uint256",
          "name": "requestId",
          "type": "uint256"
        },
        {
          "indexed": false,
          "internalType": "bool",
          "name": "userWin",
          "type": "bool"
        }
      ],
      "name": "RouletteResult",
      "type": "event"
    },
    {
      "anonymous": false,
      "inputs": [
        {
          "indexed": false,
          "internalType": "uint256",
          "name": "requestId",
          "type": "uint256"
        }
      ],
      "name": "RouletteRolled",
      "type": "event"
    },
    {
      "anonymous": false,
      "inputs": [
        {
          "indexed": false,
          "internalType": "address",
          "name": "player",
          "type": "address"
        },
        {
          "indexed": false,
          "internalType": "uint256",
          "name": "amount",
          "type": "uint256"
        }
      ],
      "name": "TransferWinner",
      "type": "event"
    },
    {
      "inputs": [
        {
          "internalType": "uint256",
          "name": "_requestId",
          "type": "uint256"
        }
      ],
      "name": "getStatus",
      "outputs": [
        {
          "components": [
            {
              "internalType": "uint256",
              "name": "fees",
              "type": "uint256"
            },
            {
              "internalType": "uint256",
              "name": "randomWord",
              "type": "uint256"
            },
            {
              "internalType": "address payable",
              "name": "player",
              "type": "address"
            },
            {
              "internalType": "bool",
              "name": "userWin",
              "type": "bool"
            },
            {
              "internalType": "bool",
              "name": "fulfilled",
              "type": "bool"
            },
            {
              "internalType": "enum Roulette.RouletteColor",
              "name": "color",
              "type": "uint8"
            }
          ],
          "internalType": "struct Roulette.RouletteRollStatus",
          "name": "",
          "type": "tuple"
        }
      ],
      "stateMutability": "view",
      "type": "function"
    },
    {
      "inputs": [
        {
          "internalType": "uint256",
          "name": "_requestId",
          "type": "uint256"
        },
        {
          "internalType": "uint256[]",
          "name": "_randomWords",
          "type": "uint256[]"
        }
      ],
      "name": "rawFulfillRandomWords",
      "outputs": [],
      "stateMutability": "nonpayable",
      "type": "function"
    },
    {
      "inputs": [
        {
          "internalType": "enum Roulette.RouletteColor",
          "name": "_color",
          "type": "uint8"
        }
      ],
      "name": "roll",
      "outputs": [
        {
          "internalType": "uint256",
          "name": "",
          "type": "uint256"
        }
      ],
      "stateMutability": "payable",
      "type": "function"
    },
    {
      "inputs": [
        {
          "internalType": "uint256",
          "name": "",
          "type": "uint256"
        }
      ],
      "name": "statuses",
      "outputs": [
        {
          "internalType": "uint256",
          "name": "fees",
          "type": "uint256"
        },
        {
          "internalType": "uint256",
          "name": "randomWord",
          "type": "uint256"
        },
        {
          "internalType": "address payable",
          "name": "player",
          "type": "address"
        },
        {
          "internalType": "bool",
          "name": "userWin",
          "type": "bool"
        },
        {
          "internalType": "bool",
          "name": "fulfilled",
          "type": "bool"
        },
        {
          "internalType": "enum Roulette.RouletteColor",
          "name": "color",
          "type": "uint8"
        }
      ],
      "stateMutability": "view",
      "type": "function"
    }
  ],
  "bytecode": "0x60c060405266038d7ea4c6800060005573326c977e6efc84e512bb9c30f76e30c160ed06fb73708701a1dff4f478de54383e49a627ed4852c8168173ffffffffffffffffffffffffffffffffffffffff1660808173ffffffffffffffffffffffffffffffffffffffff16815250508073ffffffffffffffffffffffffffffffffffffffff1660a08173ffffffffffffffffffffffffffffffffffffffff1681525050505060805160a0516115586100e46000396000818161011e01528181610327015281816108e0015281816109010152610a3f015260006108a401526115586000f3fe60806040526004361061003f5760003560e01c80631fe543e3146100445780635c622a0e1461006d5780636bf0f4a1146100aa578063e67b932c146100da575b600080fd5b34801561005057600080fd5b5061006b60048036038101906100669190610ce9565b61011c565b005b34801561007957600080fd5b50610094600480360381019061008f9190610d45565b6101b8565b6040516100a19190610ecf565b60405180910390f35b6100c460048036038101906100bf9190610f0f565b6102c0565b6040516100d19190610f4b565b60405180910390f35b3480156100e657600080fd5b5061010160048036038101906100fc9190610d45565b610542565b60405161011396959493929190610f93565b60405180910390f35b7f000000000000000000000000000000000000000000000000000000000000000073ffffffffffffffffffffffffffffffffffffffff163373ffffffffffffffffffffffffffffffffffffffff16146101aa576040517f08c379a00000000000000000000000000000000000000000000000000000000081526004016101a190611051565b60405180910390fd5b6101b482826105c5565b5050565b6101c0610ae4565b600160008381526020019081526020016000206040518060c001604052908160008201548152602001600182015481526020016002820160009054906101000a900473ffffffffffffffffffffffffffffffffffffffff1673ffffffffffffffffffffffffffffffffffffffff1673ffffffffffffffffffffffffffffffffffffffff1681526020016002820160149054906101000a900460ff161515151581526020016002820160159054906101000a900460ff161515151581526020016002820160169054906101000a900460ff1660018111156102a3576102a2610ddd565b5b60018111156102b5576102b4610ddd565b5b815250509050919050565b60008054341015610306576040517f08c379a00000000000000000000000000000000000000000000000000000000081526004016102fd906110bd565b60405180910390fd5b6000610318620f4240600360016108a0565b90506040518060c001604052807f000000000000000000000000000000000000000000000000000000000000000073ffffffffffffffffffffffffffffffffffffffff16634306d354620f42406040518263ffffffff1660e01b815260040161038191906110fc565b60206040518083038186803b15801561039957600080fd5b505afa1580156103ad573d6000803e3d6000fd5b505050506040513d601f19601f820116820180604052508101906103d1919061112c565b8152602001600081526020013373ffffffffffffffffffffffffffffffffffffffff16815260200160001515815260200160001515815260200184600181111561041e5761041d610ddd565b5b81525060016000838152602001908152602001600020600082015181600001556020820151816001015560408201518160020160006101000a81548173ffffffffffffffffffffffffffffffffffffffff021916908373ffffffffffffffffffffffffffffffffffffffff16021790555060608201518160020160146101000a81548160ff02191690831515021790555060808201518160020160156101000a81548160ff02191690831515021790555060a08201518160020160166101000a81548160ff021916908360018111156104fa576104f9610ddd565b5b02179055509050507f16ae3e028a22277c7ba1e645f796486688ac12305562893a96eccee8a162512e816040516105319190610f4b565b60405180910390a180915050919050565b60016020528060005260406000206000915090508060000154908060010154908060020160009054906101000a900473ffffffffffffffffffffffffffffffffffffffff16908060020160149054906101000a900460ff16908060020160159054906101000a900460ff16908060020160169054906101000a900460ff16905086565b60006001600084815260200190815260200160002060000154101561061f576040517f08c379a0000000000000000000000000000000000000000000000000000000008152600401610616906111a5565b60405180910390fd5b600180600084815260200190815260200160002060020160156101000a81548160ff02191690831515021790555080600081518110610661576106606111c5565b5b6020026020010151600160008481526020019081526020016000206001018190555060008060028360008151811061069c5761069b6111c5565b5b60200260200101516106ae9190611223565b14156106b957600190505b8060018111156106cc576106cb610ddd565b5b6001600085815260200190815260200160002060020160169054906101000a900460ff16600181111561070257610701610ddd565b5b141561083f57600180600085815260200190815260200160002060020160146101000a81548160ff0219169083151502179055506001600084815260200190815260200160002060020160009054906101000a900473ffffffffffffffffffffffffffffffffffffffff1673ffffffffffffffffffffffffffffffffffffffff166108fc60026000546107959190611283565b9081150290604051600060405180830381858888f193505050501580156107c0573d6000803e3d6000fd5b507fad5809ea3b5c998f919ce41ab0076fd63348607fa8af714a7690272aa5b1e46f6001600085815260200190815260200160002060020160009054906101000a900473ffffffffffffffffffffffffffffffffffffffff1660026000546108289190611283565b60405161083692919061133c565b60405180910390a15b7ff4e3826cf1f16a205e9ff325b4bb0c0c910fd817bada1450d942acfb64adc4e0836001600086815260200190815260200160002060020160149054906101000a900460ff16604051610893929190611365565b60405180910390a1505050565b60007f000000000000000000000000000000000000000000000000000000000000000073ffffffffffffffffffffffffffffffffffffffff16634000aea07f00000000000000000000000000000000000000000000000000000000000000007f000000000000000000000000000000000000000000000000000000000000000073ffffffffffffffffffffffffffffffffffffffff16634306d354886040518263ffffffff1660e01b815260040161095891906110fc565b60206040518083038186803b15801561097057600080fd5b505afa158015610984573d6000803e3d6000fd5b505050506040513d601f19601f820116820180604052508101906109a8919061112c565b8787876040516020016109bd939291906113ab565b6040516020818303038152906040526040518463ffffffff1660e01b81526004016109ea9392919061148b565b602060405180830381600087803b158015610a0457600080fd5b505af1158015610a18573d6000803e3d6000fd5b505050506040513d601f19601f82011682018060405250810190610a3c91906114f5565b507f000000000000000000000000000000000000000000000000000000000000000073ffffffffffffffffffffffffffffffffffffffff1663fc2a88c36040518163ffffffff1660e01b815260040160206040518083038186803b158015610aa357600080fd5b505afa158015610ab7573d6000803e3d6000fd5b505050506040513d601f19601f82011682018060405250810190610adb919061112c565b90509392505050565b6040518060c001604052806000815260200160008152602001600073ffffffffffffffffffffffffffffffffffffffff16815260200160001515815260200160001515815260200160006001811115610b4057610b3f610ddd565b5b81525090565b6000604051905090565b600080fd5b600080fd5b6000819050919050565b610b6d81610b5a565b8114610b7857600080fd5b50565b600081359050610b8a81610b64565b92915050565b600080fd5b6000601f19601f8301169050919050565b7f4e487b7100000000000000000000000000000000000000000000000000000000600052604160045260246000fd5b610bde82610b95565b810181811067ffffffffffffffff82111715610bfd57610bfc610ba6565b5b80604052505050565b6000610c10610b46565b9050610c1c8282610bd5565b919050565b600067ffffffffffffffff821115610c3c57610c3b610ba6565b5b602082029050602081019050919050565b600080fd5b6000610c65610c6084610c21565b610c06565b90508083825260208201905060208402830185811115610c8857610c87610c4d565b5b835b81811015610cb15780610c9d8882610b7b565b845260208401935050602081019050610c8a565b5050509392505050565b600082601f830112610cd057610ccf610b90565b5b8135610ce0848260208601610c52565b91505092915050565b60008060408385031215610d0057610cff610b50565b5b6000610d0e85828601610b7b565b925050602083013567ffffffffffffffff811115610d2f57610d2e610b55565b5b610d3b85828601610cbb565b9150509250929050565b600060208284031215610d5b57610d5a610b50565b5b6000610d6984828501610b7b565b91505092915050565b610d7b81610b5a565b82525050565b600073ffffffffffffffffffffffffffffffffffffffff82169050919050565b6000610dac82610d81565b9050919050565b610dbc81610da1565b82525050565b60008115159050919050565b610dd781610dc2565b82525050565b7f4e487b7100000000000000000000000000000000000000000000000000000000600052602160045260246000fd5b60028110610e1d57610e1c610ddd565b5b50565b6000819050610e2e82610e0c565b919050565b6000610e3e82610e20565b9050919050565b610e4e81610e33565b82525050565b60c082016000820151610e6a6000850182610d72565b506020820151610e7d6020850182610d72565b506040820151610e906040850182610db3565b506060820151610ea36060850182610dce565b506080820151610eb66080850182610dce565b5060a0820151610ec960a0850182610e45565b50505050565b600060c082019050610ee46000830184610e54565b92915050565b60028110610ef757600080fd5b50565b600081359050610f0981610eea565b92915050565b600060208284031215610f2557610f24610b50565b5b6000610f3384828501610efa565b91505092915050565b610f4581610b5a565b82525050565b6000602082019050610f606000830184610f3c565b92915050565b610f6f81610da1565b82525050565b610f7e81610dc2565b82525050565b610f8d81610e33565b82525050565b600060c082019050610fa86000830189610f3c565b610fb56020830188610f3c565b610fc26040830187610f66565b610fcf6060830186610f75565b610fdc6080830185610f75565b610fe960a0830184610f84565b979650505050505050565b600082825260208201905092915050565b7f6f6e6c792056524620563220777261707065722063616e2066756c66696c6c00600082015250565b600061103b601f83610ff4565b915061104682611005565b602082019050919050565b6000602082019050818103600083015261106a8161102e565b9050919050565b7f496e636f727265637420656e747279206665657320616d6f756e740000000000600082015250565b60006110a7601b83610ff4565b91506110b282611071565b602082019050919050565b600060208201905081810360008301526110d68161109a565b9050919050565b600063ffffffff82169050919050565b6110f6816110dd565b82525050565b600060208201905061111160008301846110ed565b92915050565b60008151905061112681610b64565b92915050565b60006020828403121561114257611141610b50565b5b600061115084828501611117565b91505092915050565b7f52657175657374206e6f7420666f756e64000000000000000000000000000000600082015250565b600061118f601183610ff4565b915061119a82611159565b602082019050919050565b600060208201905081810360008301526111be81611182565b9050919050565b7f4e487b7100000000000000000000000000000000000000000000000000000000600052603260045260246000fd5b7f4e487b7100000000000000000000000000000000000000000000000000000000600052601260045260246000fd5b600061122e82610b5a565b915061123983610b5a565b925082611249576112486111f4565b5b828206905092915050565b7f4e487b7100000000000000000000000000000000000000000000000000000000600052601160045260246000fd5b600061128e82610b5a565b915061129983610b5a565b9250817fffffffffffffffffffffffffffffffffffffffffffffffffffffffffffffffff04831182151516156112d2576112d1611254565b5b828202905092915050565b6000819050919050565b60006113026112fd6112f884610d81565b6112dd565b610d81565b9050919050565b6000611314826112e7565b9050919050565b600061132682611309565b9050919050565b6113368161131b565b82525050565b6000604082019050611351600083018561132d565b61135e6020830184610f3c565b9392505050565b600060408201905061137a6000830185610f3c565b6113876020830184610f75565b9392505050565b600061ffff82169050919050565b6113a58161138e565b82525050565b60006060820190506113c060008301866110ed565b6113cd602083018561139c565b6113da60408301846110ed565b949350505050565b60006113ed82610d81565b9050919050565b6113fd816113e2565b82525050565b600081519050919050565b600082825260208201905092915050565b60005b8381101561143d578082015181840152602081019050611422565b8381111561144c576000848401525b50505050565b600061145d82611403565b611467818561140e565b935061147781856020860161141f565b61148081610b95565b840191505092915050565b60006060820190506114a060008301866113f4565b6114ad6020830185610f3c565b81810360408301526114bf8184611452565b9050949350505050565b6114d281610dc2565b81146114dd57600080fd5b50565b6000815190506114ef816114c9565b92915050565b60006020828403121561150b5761150a610b50565b5b6000611519848285016114e0565b9150509291505056fea26469706673582212206f239c3cc61803bc57d118f2a2c8bedc2d54ad115034a1aa6aaa0079954a3cf464736f6c63430008090033",
  "linkReferences": {},
  "deployedLinkReferences": {}
}